:100F76000A128A11DE2F0714871007158711071228
:100F860087120713EB2F0710871007158711071213
:100F960087120717EB2F07148710071187110716FB
:100FA60087120713EB2F07108710071187110712F7
:100FB60087160713EB2F03138316061486140615DC
:100FC600071087100711871107128712071383125C
:100FD600061CEE2FF12F061DF42FF72F061DFA2FF4
:100FE600FD2F861CD627C627861CBE27C627861C2D
:0A0FF600CE27EB2F861CCE27D6274E
:02400E00B13FC0
:00000001FF
